{
  "contractName": "dealSC",
  "abi": [
    {
      "constant": true,
      "inputs": [
        {
          "internalType": "uint256",
          "name": "",
          "type": "uint256"
        }
      ],
      "name": "dealers",
      "outputs": [
        {
          "internalType": "address",
          "name": "",
          "type": "address"
        }
      ],
      "payable": false,
      "stateMutability": "view",
      "type": "function"
    },
    {
      "constant": false,
      "inputs": [
        {
          "internalType": "uint256",
          "name": "candidateID",
          "type": "uint256"
        }
      ],
      "name": "deal",
      "outputs": [
        {
          "internalType": "uint256",
          "name": "",
          "type": "uint256"
        }
      ],
      "payable": false,
      "stateMutability": "nonpayable",
      "type": "function"
    }
  ],
  "bytecode": "0x608060405234801561001057600080fd5b506101c4806100206000396000f3fe608060405234801561001057600080fd5b50600436106100365760003560e01c8063c959c42b1461003b578063e7f41cf01461007d575b600080fd5b6100676004803603602081101561005157600080fd5b81019080803590602001909291905050506100eb565b6040518082815260200191505060405180910390f35b6100a96004803603602081101561009357600080fd5b810190808035906020019092919050505061015c565b604051808273ffffffffffffffffffffffffffffffffffffffff1673ffffffffffffffffffffffffffffffffffffffff16815260200191505060405180910390f35b60008082101580156100fe575060648211155b61010757600080fd5b336000836010811061011557fe5b0160006101000a81548173ffffffffffffffffffffffffffffffffffffffff021916908373ffffffffffffffffffffffffffffffffffffffff160217905550819050919050565b6000816010811061016957fe5b016000915054906101000a900473ffffffffffffffffffffffffffffffffffffffff168156fea265627a7a7231582055446bb9dac5bcd7e1ea230e300d7fead877a0f0c762f190df0d2d2496e1d4fc64736f6c63430005100032",
  "source": "pragma solidity >=0.4.22<0.7.0;\n\ncontract dealSC{\n    address[16] public dealers;\n\n    //Choose a candidate \n    function deal(uint candidateID) public returns (uint) {\n        require(candidateID >=0 && candidateID <=100);\n        dealers[candidateID] = msg.sender;\n        return candidateID;\n    }\n\n}",
  "sourcePath": "/Users/lamnd/Desktop/Hackathon/EuvsVirus_EpiTeam/contracts/dealSC.sol",
  "compiler": {
    "name": "solc",
    "version": "0.5.16+commit.9c3226ce.Emscripten.clang"
  },
  "schemaVersion": "3.1.0",
  "updatedAt": "2020-04-25T18:01:45.598Z",
  "devdoc": {
    "methods": {}
  },
  "userdoc": {
    "methods": {}
  }
}