{
  "contractName": "hireSC",
  "abi": [
    {
      "inputs": [],
      "payable": false,
      "stateMutability": "nonpayable",
      "type": "constructor"
    },
    {
      "constant": true,
      "inputs": [],
      "name": "elder",
      "outputs": [
        {
          "internalType": "address",
          "name": "",
          "type": "address"
        }
      ],
      "payable": false,
      "stateMutability": "view",
      "type": "function"
    },
    {
      "constant": true,
      "inputs": [],
      "name": "last_completed_hiresc",
      "outputs": [
        {
          "internalType": "uint256",
          "name": "",
          "type": "uint256"
        }
      ],
      "payable": false,
      "stateMutability": "view",
      "type": "function"
    },
    {
      "constant": false,
      "inputs": [
        {
          "internalType": "uint256",
          "name": "completed",
          "type": "uint256"
        }
      ],
      "name": "setCompleted",
      "outputs": [],
      "payable": false,
      "stateMutability": "nonpayable",
      "type": "function"
    }
  ],
  "bytecode": "0x608060405234801561001057600080fd5b50336000806101000a81548173ffffffffffffffffffffffffffffffffffffffff021916908373ffffffffffffffffffffffffffffffffffffffff16021790555061019c806100606000396000f3fe608060405234801561001057600080fd5b50600436106100415760003560e01c8063c2c55faa14610046578063d63beb0714610090578063fdacd576146100ae575b600080fd5b61004e6100dc565b604051808273ffffffffffffffffffffffffffffffffffffffff1673ffffffffffffffffffffffffffffffffffffffff16815260200191505060405180910390f35b610098610101565b6040518082815260200191505060405180910390f35b6100da600480360360208110156100c457600080fd5b8101908080359060200190929190505050610107565b005b6000809054906101000a900473ffffffffffffffffffffffffffffffffffffffff1681565b60015481565b6000809054906101000a900473ffffffffffffffffffffffffffffffffffffffff1673ffffffffffffffffffffffffffffffffffffffff163373ffffffffffffffffffffffffffffffffffffffff16141561016457806001819055505b5056fea265627a7a723158201c11b885dd8c2a2f7cf1cc8a430ed44d2917e264bbb15cc741db12519c3acf3d64736f6c63430005100032",
  "source": "pragma solidity >=0.4.22 < 0.7.0;\n\ncontract hireSC {\n    address public elder;\n    uint public last_completed_hiresc;\n    \n    modifier restricted(){\n        if(msg.sender == elder) _;\n    }\n\n    constructor() public {\n        elder = msg.sender;\n    }\n\n    function setCompleted(uint completed) public restricted {\n        last_completed_hiresc = completed;\n    }\n\n}",
  "sourcePath": "/Users/lamnd/Desktop/Hackathon/EuvsVirus_EpiTeam/contracts/hireSC.sol",
  "compiler": {
    "name": "solc",
    "version": "0.5.16+commit.9c3226ce.Emscripten.clang"
  },
  "schemaVersion": "3.1.0",
  "updatedAt": "2020-04-25T18:01:45.599Z",
  "devdoc": {
    "methods": {}
  },
  "userdoc": {
    "methods": {}
  }
}